S016000053696D6F6E53657175656E6365732E737265635C
S113000086C0000070C20000A0C000009EC00000B6
S11300109CC000009AC0000098C0000096C0000078
S113002094C0000048C2000090C000008EC00000D0
S11300308CC000008AC0000088C0000086C0000098
S113004084C0000082C0000080C000007EC00000A8
S11300507CC000007AC0000078C0000076C00000B8
S113006074C0000072C0000070C000006EC00000C8
S11300706CC000006AC0000068C0000066C00000D8
S113008064C0000062C0000060C000000763423624
S1130090B79BD8A71A39685618AEBAAB558C1D3C15
S11300A0B7CC5763BD6DEDFD753EF6177231BF00D9
S11300B00000803F08000000BE922449123EABAA13
S11300C0AA2ABECDCCCC4C3E00000080BEABAAAA6E
S11300D0AA3E00000000BF000000803F00000000B6
S11300E000084178D3BB4387D1133D190E3CC3BDEF
S11300F04282AD2B3E68EC8276BED98FE1A93E4C9C
S113010080EFFFBE01C4FF7F3F0000000000112408
S11301101FBECFEFD0E1DEBFCDBF11E0A0E0B1E064
S1130120E6E8F4E100E00BBF02C007900D92A034B2
S1130130B107D9F721E0A0E4B1E001C01D92A635D2
S1130140B207E1F7B1D30C94410A5ACF0C94A60933
S113015008950E94A309907899231CF401979F6F36
S113016001960895CF93DF9383E090E084D7EC0168
S113017019821882EEDF8A83CE01DF91CF91089530
S1130180CF93DF93EC01EEDF209761F0FE0101C015
S1130190F9012081318121153105D1F780839183C3
S11301A08C2F9D2FDF91CF910895CF93DF9306C0BD
S11301B0FC01D081C181F7D78D2F9C2F0097C1F707
S11301C0DF91CF91089583E687B986EC86B91092C2
S11301D061008FEF8ABB089585B196B1906496B99A
S11301E008950F931F93CF93DF938C0180E190E0E8
S11301F042D7EC014AE0BC01C8010E94B109CE011A
S1130200DF91CF911F910F91089585B3886085BBCD
S11302108FEC97E00197F1F700C0000085B3877F6A
S113022085BB8FEC97E00197F1F700C000000895BB
S1130230CF93C82F85BB85B3846085BBE6DFC295A9
S1130240C07FC5BB85B3846085BBDFDFCF910895D4
S1130250CF93DF93EC0103C090E0EADF219688811D
S11302608111FACFDF91CF910895CF93C82F85BB29
S113027085B38B7F85BBC9DFC295C07FC5BB85B302
S11302808B7F85BBC2DFCF9108959C012F703327EC
S11302902068880F991F880F991F80749927822BD3
S11302A0932BE3CF089581E0E0DF8FE99FE001978E
S11302B0F1F700C0000080E8D8CF0895CF938FEF06
S11302C084BB15BAC0E2C5BBA0DFC5BB9EDF80E816
S11302D085BB9BDF15BA99DF80EF85BB96DF15BA26
S11302E094DF80E685BB91DFDEDF80E090E0CDDF48
S11302F0CF9108958FEF87BB87B3877F87BB88B380
S1130300816088BB82E58DB908958FB9779BFECF54
S1130310089598B321E030E002C0220F331F8A957C
S1130320E2F72095292328BB089598B321E030E013
S113033002C0220F331F8A95E2F7292B28BB0895A8
S113034080E0E7DF89E0E1DF8FEFDFDF80E0EDDFF2
S113035080E0DFDF8AE0D9DF81E0D7DF80E0E5DF1E
S113036080E0D7DF8BE0D1DF83E0CFDF80E0DDDF2B
S113037080E0CFDF8CE0C9DF81E0C7DF80E0D5CF4C
S1130380089581E087BBB6DFDBCF0895CF93DF9379
S1130390D82FC62F80E0BDDF8D2FB7DF8C2FB5DFC0
S11303A080E0C3DFDF91CF910895EF92FF920F9326
S11303B01F93CF93DF937C018F2D881F8827881F7D
S11303C090E0880F991F21E030E0281B390BE29E52
S11303D0C001E39E900DF29E900D112401E010E007
S11303E001C08E016AE070E01FD6D62FC72F682F98
S11303F0802FCCDF8D2F9C2FE8012196C530D105AD
S113040014F4009771F7FF2034F40E5F1F4F6AE075
S11304108C2FBCDFE8016FE08C2FB8DF2196C5304C
S1130420D105CCF3DF91CF911F910F91FF90EF9005
S11304300895CF93DF93C0E0D0E004C06FE08C2F29
S1130440A5DF2196C430D105CCF3DF91CF91089577
S11304509B01AC0160E074E284E799E498D290D403
S1130460FED277BD66BD769567957BBD6ABD08955E
S113047011BAEAE6F0E080818260808389B7816006
S113048089BF089587B3806287BB81E090E097BD00
S113049086BD9BBD8ABD87B7806887BF82E88FBD54
S11304A08AE18EBD089588EE83BD87B7806887BFD3
S11304B08AE085BD08951F920F920FB60F92112402
S11304C08F939F93809142019091430101969F7075
S11304D090934301809342019F918F910F900FBE9F
S11304E00F901F9018951F920F920FB60F92112420
S11304F08F939F9381E090E090934101809340011A
S11305009F918F910F900FBE0F901F90189580911F
S1130510400190914101009731F0109241011092F5
S1130520400181E090E00895109241011092400151
S1130530089580934B0160934A01209346013093C0
S11305404701409348015093490120914C01309157
S11305504D0130934F0120934E0190E0909351014F
S113056080935001ABDE84DF8DDF9DDF2CDE09CF6D
S11305700895CF92DF92EF92FF92CF93C82F6091AC
S11305804A0170E080E090E098D29B01AC0160E009
S113059070E080E893E4FBD16B017C016C2F70E088
S11305A080E090E08AD2A7019601F1D19B01AC01D1
S11305B060E070E080E090E497D320E030E04CED20
S11305C053E42FD3CF91FF90EF90DF90CF90089515
S11305D003DECFDF3DDF8FE19EE40197F1F700C03A
S11305E000000895C6DF34DF2FEF89E698E121503B
S11305F080409040E1F700C0000060E070E0CB0173
S113060027CF08954F925F926F927F928F929F921D
S1130610AF92BF92CF92DF92EF92FF92CF93DF938C
S1130620C82FDADDD82F60914A0170E080E090E0B5
S113063044D29B01AC0160E070E080E893E4A7D170
S11306406B017C016D2F70E080E090E036D2A70151
S113065096019DD14B015C016C2F70E080E090E02D
S11306602CD2A701960193D16B017C0140904601E5
S1130670509047016090480170904901A301920194
S11306801DD19B01AC01C501B4017DD188237CF04F
S1130690A3019201C701B60112D19B01AC01C501AE
S11306A0B401BBD2181634F480E090E005C080E0B9
S11306B090E002C081E090E0DF91CF91FF90EF9055
S11306C0DF90CF90BF90AF909F908F907F906F906E
S11306D05F904F90089581E090E00090500102C037
S11306E0880F991F0A94E2F781508BBBDCDD8AE006
S11306F091E0AEDD80914E0190914F0172DDA8DD55
S113070081E190E0C2DD82E191E0A2DD80914C01C3
S113071090914D0166DD9CCD08950F931F93CF9367
S1130720DF9380914C0190914D013FDEBCDD8EE161
S113073091E08EDD80E190E0A8DD8FE291E088DD3C
S1130740F3DEE5DE892BE9F38091420190914301C8
S1130750FDDC80914B0190E0909351018093500116
S11307607AC080914401909145010ADDEC01909397
S1130770450180934401AFDF00E010E012C0015056
S11307801109C80112DE8A812DDF2FEF80E792E084
S1130790215080409040E1F700C000000990D881CA
S11307A0C02D209761F745DE2FEF89E698E12150AF
S11307B080409040E1F700C00000C0914401D09116
S11307C0450100E010E03AC00F5F1F4FC801EDDDA6
S11307D0ABDE01C0FDDE9BDE892BE1F38A8112DFF3
S11307E0892B11F10990D881C02D80914E019091EF
S11307F04F01019690934F0180934E0120914C013B
S113080030914D012817390724F490934D018093BA
S11308104C0161DF2FEF80E792E02150804090404F
S1130820E1F700C000000AC080915001909151018D
S11308300197909351018093500103C0209709F0D0
S1130840C3CFF7DD2FEF89E698E121508040904037
S1130850E1F700C0000080915001909151011816F9
S113086019060CF47ECFE5DD36DF10924F011092AD
S11308704E01809144019091450197DC109245010D
S11308801092440160E070E0CB01E2DD2FEF89E6D5
S113089098E1215080409040E1F700C00000DF91D2
S11308A0CF911F910F91089578942BEA3AEA4AE286
S11308B05EE361E083E03DDE30DFFECF5058BB27CE
S11308C0AA270ED070C161D130F066D120F031F486
S11308D09F3F11F41EF456C10EF4E095E7FB4CC1A2
S11308E0E92F72D180F3BA1762077307840795075B
S11308F018F071F49EF58AC10EF4E0950B2EBA2F10
S1130900A02D0B01B90190010C01CA01A001112411
S1130910FF27591B99F0593F50F4503E68F11A16BD
S1130920F040A22F232F342F4427585FF3CF46954E
S113093037952795A795F0405395C9F77EF41F1670
S1130940BA0B620B730B840BBAF09150A1F0FF0F3A
S1130950BB1F661F771F881FC2F70EC0BA0F621F26
S1130960731F841F48F4879577956795B795F79516
S11309709E3F08F0B3CF9395880F08F09927EE0FA8
S1130980979587950895D4D008F481E008950CD004
S11309900AC102D140F0F9D030F021F45F3F19F0E0
S11309A0EBC0511134C1EEC00FD198F39923C9F3B0
S11309B05523B1F3951B550BBB27AA276217730761
S11309C0840738F09F5F5F4F220F331F441FAA1F15
S11309D0A9F333D00E2E3AF0E0E830D091505040D5
S11309E0E695001CCAF729D0FE2F27D0660F771F83
S11309F0881FBB1F261737074807AB07B0E809F065
S1130A00BB0B802DBF01FF2793585F4F2AF09E3FF9
S1130A10510568F0B1C0FBC05F3FECF3983EDCF3D6
S1130A20869577956795B795F7959F5FC9F7880F72
S1130A30911D9695879597F90895E1E0660F771FC4
S1130A40881FBB1F621773078407BA0720F0621B55
S1130A50730B840BBA0BEE1F88F7E0950895BCD096
S1130A6088F09F5790F0B92F9927B751A0F0D1F093
S1130A70660F771F881F991F1AF0BA95C9F712C01D
S1130A80B13081F0C3D0B1E00895C0C0672F782F92
S1130A908827B85F39F0B93FCCF386957795679589
S1130AA0B395D9F73EF490958095709561957F4FF5
S1130AB08F4F9F4F0895E89409C097FB3EF490959B
S1130AC08095709561957F4F8F4F9F4F9923A9F023
S1130AD0F92F96E9BB279395F695879577956795B2
S1130AE0B795F111F8CFFAF4BB0F11F460FF1BC0F6
S1130AF06F5F7F4F8F4F9F4F16C0882311F096E989
S1130B0011C0772321F09EE8872F762F05C0662336
S1130B1071F096E8862F70E060E02AF09A95660FEF
S1130B20771F881FDAF7880F9695879597F90895A8
S1130B30990F0008550FAA0BE0E8FEEF16161706EA
S1130B40E807F907C0F012161306E407F50798F052
S1130B50621B730B840B950B39F40A2661F0232B6B
S1130B60242B252B21F408950A2609F4A140A695E7
S1130B708FEF811D811D089597F99F6780E870E0CC
S1130B8060E008959FEF80EC089500240A941616FF
S1130B90170618060906089500240A941216130667
S1130BA0140605060895092E0394000C11F48823F5
S1130BB052F0BB0F40F4BF2B11F460FF04C06F5F11
S1130BC07F4F8F4F9F4F089557FD9058440F551FE7
S1130BD059F05F3F71F04795880F97FB991F61F0BB
S1130BE09F3F79F087950895121613061406551F32
S1130BF0F2CF4695F1DF08C0161617061806991F9E
S1130C00F1CF86957105610508940895E894BB2792
S1130C1066277727CB0197F908958ADF08F48FEFC9
S1130C2008950BD0C0CFB1DF28F0B6DF18F09523BC
S1130C3009F0A2CFA7CF1124EACFC6DFA0F3959F76
S1130C40D1F3950F50E0551F629FF001729FBB27AF
S1130C50F00DB11D639FAA27F00DB11DAA1F649F5B
S1130C606627B00DA11D661F829F2227B00DA11D0E
S1130C70621F739FB00DA11D621F839FA00D611D94
S1130C80221F749F3327A00D611D231F849F600DB5
S1130C90211D822F762F6A2F11249F5750408AF0EE
S1130CA0E1F088234AF0EE0FFF1FBB1F661F771F7A
S1130CB0881F91505040A9F79E3F510570F05CCFBA
S1130CC0A6CF5F3FECF3983EDCF386957795679566
S1130CD0B795F795E7959F5FC1F7FE2B880F911D98
S1130CE09695879597F90895FA01EE0FFF1F3096B0
S1130CF02105310599F16115710561F48038BFE36F
S1130D009B0749F168949038810561F08038BFEF02
S1130D109B0741F0992342F5FF3FE1053105210589
S1130D2011F1E8940894E795D901AA2329F4AB2F8B
S1130D30BE2FF85FD0F310C0FF5F70F4A695E0F704
S1130D40F73950F019F0FF3A38F49F779F930CD09D
S1130D500F9007FC905808953EF014CF60E070E0C7
S1130D6080E89FE308954FE79F775F934F933F9306
S1130D702F93E7D02F913F914F915F9152DF25C080
S1130D802BDFE0F09E37D8F09639B8F49E3848F45B
S1130D90672F782F8827985FF9CF86957795679581
S1130DA093959539D0F3B62FB1706B0F711D811DDA
S1130DB020F4879577956795939533C04DC027CFD9
S1130DC019F40EF0D9CE22CFDDCE06DFC8F3963863
S1130DD0C0F707F80F92E8942BE33AEA48EB5FE791
S1130DE02EDF0F920F920F924DB75EB70F92E9D09C
S1130DF0ECE8F0E03FD04F915F91EF91FF91E595E2
S1130E00EE1FFF1F49F0FE57E0684427EE0F441F12
S1130E10FA95E1F74195550B5BD00F9007FE4FC053
S1130E200895882371F4772321F09850872B762F27
S1130E3007C0662311F499270DC09051862B70E0EA
S1130E4060E02AF09A95660F771F881FDAF7880FFB
S1130E509695879597F908959F3F31F0915020F426
S1130E60879577956795B795880F911D9695879582
S1130E7097F90895DF93CF931F930F93FF92EF9207
S1130E80DF927B018C01689405C0DA2EEF01D5DE78
S1130E90FE01E894A5912591359145915591AEF3C4
S1130EA0EF011EDDFE019701A801DA9479F7DF90C6
S1130EB0EF90FF900F911F91CF91DF9108959B01C7
S1130EC0AC0160E070E080E89FE361CD55CEC4CF13
S1130ED083DEE8F39923D9F3940F511DBBF39150AA
S1130EE0504094F059F0882332F0660F771F881F22
S1130EF091505040C1F79E3F510544F7880F911D12
S1130F009695879597F908955F3FACF0983E9CF0CD
S1130F10BB27869577956795B79508F4B160939547
S1130F20C1F7BB0F58F711F460FFE8CF6F5F7F4F35
S1130F308F4F9F4FE3CF6BCE0EF08ECF23CE6894AE
S1130F401BCE4ADEC8F39923D1F3C6F3DF93CF93C4
S1130F501F930F93FF92C92FDD2788232AF021972F
S1130F60660F771F881FDAF720E030E040E85FEB78
S1130F709FE3883920F0803E30F021968F779FDC04
S1130F80E4EBF0E003C09BDCE1EEF0E073DF8B0107
S1130F90BE01EC01FB2E6F5771097595771F880B05
S1130FA0990B8BDD28E132E741E35FE346DEAF2DA9
S1130FB09801AE01FF900F911F91CF91DF9190DCCA
S1130FC0F2CDFA01DC01AA0FBB1F9B01AC01BF5794
S1130FD028F422273327442750781FC0B75188F4B8
S1130FE0AB2F0024469537952795011CA395D2F382
S1130FF0002069F0220F331F441FB395DAF30DD09C
S11310005DCC61307105A0E88A07B94630F49B01D4
S1131010AC016627772788279078309621F02083C3
S1131020318342835383089597FB072E16F400946B
S113103006D077FD08D00BD007FC05D03EF4909580
S113104081959F4F0895709561957F4F0895AA1BD0
S1131050BB1B51E107C0AA1FBB1FA617B70710F09F
S1131060A61BB70B881F991F5A95A9F780959095D1
S1131070BC01CD0108950F931F93CF93DF9382306A
S1131080910510F482E090E0E0915401F091550153
S113109020E030E0A0E0B0E0309719F140815181C8
S11310A00281138148175907C8F08417950769F41A
S11310B0109731F012960C93129713961C9327C035
S11310C0009354011093550122C02115310519F0E4
S11310D04217530718F49A01BD01EF01DF01F8012B
S11310E0DBCF21153105F9F0281B390B24303105EC
S11310F080F48A819B816115710521F0FB01938342
S1131100828304C09093550180935401FE0132966A
S113111044C0FE01E20FF31F8193919322503109E1
S1131120398328833AC02091520130915301232BF3
S113113041F4209102013091030130935301209333
S1131140520120910001309101012115310541F432
S11311502DB73EB74091040150910501241B350B76
S1131160E0915201F0915301E217F307A0F42E1B12
S11311703F0B2817390778F0AC014E5F5F4F2417F7
S1131180350748F04E0F5F1F5093530140935201AF
S11311908193919302C0E0E0F0E0CF01DF91CF9121
S11311A01F910F910895CF93DF93009709F481C0A5
S11311B0FC01329713821282A0915401B09155011F
S11311C0109781F420813181820F931F2091520165
S11311D0309153012817390751F5F0935301E093E7
S11311E0520167C0ED0120E030E0CE17DF0740F484
S11311F04A815B819E0141155105F1F0EA01F5CF69
S1131200D383C28340815181840F951FC817D907A6
S113121059F488819981840F951F02969183808364
S11312208A819B81938382832115310529F4F0936C
S11312305501E09354013DC0E901FB83EA834991E0
S11312405991C40FD51FEC17FD0761F4808191817A
S1131250840F951F0296E901998388838281938183
S11312609B838A83E0E0F0E012968D919C91139722
S1131270009719F0FD01DC01F7CF8D919C91119736
S11312809D012E5F3F4F820F931F20915201309199
S113129053012817390769F4309729F4109255013E
S11312A01092540102C013821282B0935301A0938E
S11312B05201DF91CF9108958F929F92AF92BF9286
S11312C0CF92DF92EF92FF92CF93DF93EC0168818C
S11312D079818A819B81611571058105910521F4CC
S11312E064E279ED8BE597E02DE133EF41E050E0E6
S11312F06BD049015A019B01AC01A7EAB1E480D04B
S11313006B017C01ACEEB4EFA501940185D0DC0146
S1131310CB018C0D9D1DAE1DBF1DB7FF03C00197F2
S1131320A109B04888839983AA83BB839F77DF91FF
S1131330CF91FF90EF90DF90CF90BF90AF909F90B0
S11313408F900895B9CF86E091E0B6CFA0E0B0E0E9
S11313508093060190930701A0930801B0930901BB
S11313600895BB274A3031F4992322F4BDE29095C5
S113137081959F4F01C0BB27FB015527AA27880FE2
S1131380991FAA1FA41710F0A41B83955051B9F7F5
S1131390A05DAA3308F0A95DA193009779F7B11174
S11313A0B1931192CB0100C0DC01FC01672F719154
S11313B07723E1F7329704C07C916D937083629137
S11313C0AE17BF07C8F30895052E97FB16F40094D3
S11313D00FD057FD05D024D007FC02D046F408C036
S11313E050954095309521953F4F4F4F5F4F08954D
S11313F090958095709561957F4F8F4F9F4F08957D
S113140031D0A59F900DB49F900DA49F800D911D88
S113141011240895B7FFF4CFF3DF821B930B0895D3
S1131420A1E21A2EAA1BBB1BFD010DC0AA1FBB1FE4
S1131430EE1FFF1FA217B307E407F50720F0A21B56
S1131440B30BE40BF50B661F771F881F991F1A94C3
S113145069F760957095809590959B01AC01BD01ED
S1131460CF010895A29FB001B39FC001A39F700D47
S1131470811D1124911DB29F700D811D1124911D98
S10914800895F894FFCF6B
S11314860000560120000100000053636F72653AA4
S113149620004869676873636F72653A2000536970
S11314A66D6F6E53796E74686573697365730050F6
S11314B67265737320746F207374617274210000F3
S9030000FC
